:0400000002001132B7
:03000B000200BB35
:10006A007521D07522077523327524007525007510
:10007A002601E4F527F5287529D0752A8A752BB447
:10008A00752CE2752D01F52E752F14F53075313C5E
:10009A00F532753349F534753554F53675375DF5EE
:1000AA0038753964F53AF53BF53CF53DF53E020005
:0100BA000E37
:03000E000201BF2D
:1000BB00C020C0E0C0F0C082C083C007C006C0052E
:1000CB00C004C003C002C001C000C0D075D0087509
:1000DB001000751101852982852A8375D0001202C3
:1000EB009B75D008AE828E8C75101075110085290A
:1000FB0082852A8375D00012026575D008AE82AF57
:10010B00838E8AE5257014E526C313F526700375D7
:10011B0026085380F0E52642808016E526FF25E071
:10012B00F5267410B526037526015380F0E526429B
:10013B0080053DE4B53D02053EC3E53D940AE53E31
:10014B0064809480401DE529952BE52A6480852CDD
:10015B00F063F08095F0500B74642529F529E43594
:10016B002AF52A152174FFB521021522C3E4952126
:10017B0074808522F063F08095F0401B7401B525E7
:10018B0002C28C7525017521A075220FE4F53DF592
:10019B003E7529D0752A8AD0D0D000D001D002D09C
:1001AB0003D004D005D006D007D083D082D0F0D0B6
:1001BB00E0D0203275A88275890175100075110188
:1001CB00852982852A8312029BAE828E8C75101034
:1001DB00751100852982852A83120265AE828E8A6B
:0401EB00D28C80FE34
:0802D700030006000C00090001
:06004000E478FFF6D8FD94
:10001E007900E94400601B7A009002DF780175A038
:10002E0000E493F2A308B8000205A0D9F4DAF27541
:02003E00A0FF21
:1001EF00E510451160467A01E51025E0F510E5119F
:1001FF00334012F511E5829510E583951140030AFE
:10020F0080E6C3E51113F511E51013F510C3E58270
:10021F009510F5F0E58395114005F58385F082C3C0
:0D022F00E51113F511E51013F510DAE122C9
:100046007800E84400600A790175A000E4F309D855
:10005600FC7800E84400600C7900900001E4F0A30D
:04006600D8FCD9FAEF
:10023C007A10E4FBFCE58225E0F582E58333F58357
:10024C00EB33FBEC33FCEB9510F5F0EC9511400621
:09025C00FCABF0438201DADD2263
:0D00110075813E1202D3E582600302000EED
:10026500C2D5E58330E70DD2D5E4C39582F582E4A6
:100275009583F583E51130E70BE4C39510F510E49C
:100285009511F5111201EF30D50BE4C39582F58276
:10029500E49583F58322C2D5E58330E70DD2D5E415
:1002A500C39582F582E49583F583E51130E70DB2B8
:1002B500D5E4C39510F510E49511F51112023C3003
:1002C500D50BE4C39582F582E49583F58322758287
:0202D500002205
:00000001FF
