:03000000020006F5
:03005F0002000399
:0300030002008573
:200062007E007F007C647D00EC24FFFAED34FFFB8A048B05EA4B70F00EBE00010F74FC2FD2
:2000820050E2227E107F007C007D00EC4D701AEFC313CE13CEFF8E03EBF4F590EE4F700923
:2000A2007C01FDFE7F017590FFBC011DBD001AEFC313CE13CEFF8E03EBF4F580EE4F700983
:2000C2007C02FDFE7F017580FFBC021EBD001BEFC313CE13CEFF8E03EBF4F5A0EE4F700A4E
:2000E200FCFDFE7F0175A0FF80A1C007C006C005C004120062D004D005D006D00702008DE3
:06003500E478FFF6D8FD9F
:200013007900E94400601B7A00900106780175A000E493F2A308B8000205A0D9F4DAF2758C
:02003300A0FF2C
:20003B007800E84400600A790175A000E4F309D8FC7800E84400600C7900900001E4F0A3C3
:04005B00D8FCD9FAFA
:0D000600758107120102E58260030200030C
:0401020075820022E0
:00000001FF
