:0400000002001132B7
:03000B0002008070
:10006A00E4F510F511F512F513751470F5157516FA
:06007A00B0F51702000EB4
:03000E000200D11C
:10008000C0E0C0D0758C3C758AB00510E4B5100294
:100090000511D0D0D0E0327E007F00C3EE94DCEFBB
:1000A0006480948550070EBE00F10F80EE22E512A9
:1000B000451360058514808003851680E51245137D
:1000C0007007751201F5138005E4F512F5130200AF
:1000D0009775803075890175A882D28C758C3C75B6
:1000E0008AB0C2AF740AB51006E4B511028002806E
:1000F0004DE4F510F5110516B5160205177479B51E
:100100001406E4B515028002801974BAB51606E427
:10011000B517028002800C7514707515007516B045
:1001200075170074BAB51606E4B517028002800E82
:100130007516B07517000514E4B514020515D2AF95
:050140001200AE809DDD
:06004000E478FFF6D8FD94
:10001E007900E94400601B7A00900149780175A0CF
:10002E0000E493F2A308B8000205A0D9F4DAF27541
:02003E00A0FF21
:100046007800E84400600A790175A000E4F309D855
:10005600FC7800E84400600C7900900001E4F0A30D
:04006600D8FCD9FAEF
:0D001100758117120145E582600302000EA3
:04014500758200229D
:00000001FF
