:0400000002001132B7
:03000B000200727E
:08006A00E4F510F51102000E8F
:03000E0002008964
:10007200C0E0C0D0758C3C758AB00510E4B51002A2
:100082000511D0D0D0E0327E797F007CB57D007A38
:10009200007B0075803075890175A882D28C758CC1
:1000A2003C758AB0C2AF740AB51006E4B51102807D
:1000B20002802DE4F510F5110CBC00010DBE791182
:1000C200BF000EBCBA0BBD00087E707F007CB07D05
:1000D20000BCBA0CBD00097CB07D000EBE00010F51
:1000E200D2AFEA4B60048E8080028C80EA4B7005AE
:1000F2007A01FB80047A007B0078007900C3E894DF
:0F010200E8E964809483509C08B800F10980EE0E
:06004000E478FFF6D8FD94
:10001E007900E94400601B7A00900115780175A003
:10002E0000E493F2A308B8000205A0D9F4DAF27541
:02003E00A0FF21
:100046007800E84400600A790175A000E4F309D855
:10005600FC7800E84400600C7900900001E4F0A30D
:04006600D8FCD9FAEF
:0D001100758111120111E582600302000EDD
:0401110075820022D1
:00000001FF
