:0400000002002132A7
:03000B000200AD43
:0100130032BA
:03001B000200F1EF
:20007A00751D06751E01751F2675200175214A75220175235D752401752588752601752789
:13009A00B87528017529EE752A01753D00753E0002001E4C
:03001E000201DDFF
:2000AD00C0E0C082C083C0D075D008E51A90056893FF1FEF2F241DF9870E09870F8E0AEF71
:2000CD00FB3395E0FCFDE4C39AE49BFB74019CE49D8B8CC3E49EFE8E8A053DD0D0D083D0B3
:2000ED0082D0E032C0E0C0D0758D0B758BDC0518E4B518020519D0D0D0E032751A007518EA
:20010D00FF7519FF7E077F00C3EE9410EF64809480502CEE2EFCEF33EC241DF98E05ED2486
:20012D00F925E0241DF8860408860518EC2CFCED33FDA70409A705190EBE00CC0F80C97E2E
:20014D00007F00C3EE9410EF64809480400122EE2EFCEF33EC241DF9878209878319C00718
:20016D00C006C001120334AA82AB83ACF0FDC002C003C004C00590000075F080743F120364
:20018D00C4AA82AB83ACF0FDE58124FCF581C002C003C004C00590240075F0747449120233
:2001AD0030AA82AB83ACF0FDE58124FCF5818A828B838CF0ED120341E5828583F0D001D03A
:2001CD0006D007F709A7F0190EBE00010F02015012010875891175A88AD28CD28E758C00C6
:2001ED00758A00C2A7751B01751C00C2AF7401B53D11753D00E51A90056893FFBF100280EE
:20020D0002B2A7740AB51806E4B519028002800F051AE4F518F5197460B51A03751A00D23B
:03022D00AF80C8D7
:200568000A0A0A0A090808070606080A0D0D0D0D0C0B0B0A09090A0B0A0B0A0C0B0A0A0933
:20058800080807060707070708070610100610100A0A0A0A09080807070707070D0D0D0D27
:2005A8000E0D0D0C0C0C0D0E0F0F0F0F0E0E0D0D0D0D0C0B0A0A0A0A0B090810100810109D
:200230001202D3BC0003020396EF60FA30D502B2D1E583B4FF030203ACE582B4FF030203A9
:20025000AC258340072482400B02039624831450030203ACF582EA8DF0A4A8F0EA8EF0A482
:2002700028F8E435F0F9EB8DF0A428E935F0F9E433CA8FF0A429F9EA35F0FAEBF88EF0A4DD
:2002900029F9EA35F0FAE433FBEC8DF0A429F9EA35F0FAE43BFBE88FF0A42AFAEB35F0FB85
:2002B000E433CCFD8EF0A42AFAEB35F0FBE43CFCED8FF0A42BFBEC35F0FC20E7031203017E
:0302D000020375B1
:2002D300AA82AB83A2F73392D1F5826002D2F7ACF0E58124F9F8E6FD08E6FE0886F008E68E
:0E02F300A2F73392D5F5836002D2F7AFF02266
:06005000E478FFF6D8FD84
:200301007804EC7011E58224F8500AF582E4C9CACBFCD8EF22EC7820058220E713D58201FB
:1303210022C3E933F9EA33FAEB33FBEC33FCD8EA15822209
:20002E007900E94400601B7A009005C8780175A000E493F2A308B8000205A0D9F4DAF275AB
:02004E00A0FF11
:200056007800E84400600A790175A000E4F309D8FC7800E84400600C7900900001E4F0A3A8
:04007600D8FCD9FADF
:0D033400AC83AB827A007900748E020490D5
:200341001204B4700AE582458345F0700122E430D112F4700BE5F0F47006E58330E701221A
:1403610090800022700AE5F07006E58320E70122907FFF22CF
:20037500B98003EA13B34010EA2401FAE43BFBE43CFC50047C800582BC000EBB000BBA00CC
:2003950008E4F5F0F583F58222A2D1E582138CF092F78B838A8222E4F583F58275F080F48C
:0F03B500A2D11322E4F583F58275F0C0747F2284
:2003C4001202D330D502B2D1BF0009BC00030203B90203ACBC0003020396E583B4FF0BE54D
:2003E40082B4FF030203B9020396E582B4FF030203ACC395835007247F400B02039624803B
:200404001450030203ACF582C3ED9AEE9BEF9C40111582C3EA33F9EB33FAEC33FBE433FCE5
:200424008005E4CCCBCAF9C08275F019C3E99DEA9EEB9FEC9400D5F002802D400EE99DF919
:20044400EA9EFAEB9FFBEC9400FCC3B3E833F8E58233F582E58333F583C3E933F9EA33FA79
:20046400EB33FBEC33FC80C4B3E4F938FAE43582FBE43583FCD082500405827C80120301D1
:0304840002038DE3
:0D00210075813E12050FE582600302001E8E
:20048700FCABF0AA83A982749EF582C2D1EC30E716D2D1E9F42401F9EAF43400FAEBF43474
:0D04A70000FBECF43400FC120301020375AD
:2004B400120513C3749E95824039790012052530D126E9F42401F582EAF43400F583EBF4DB
:2004D4003400F5F0ECF43400700AE582458345F0700122E430E70F22EC20E71489828A831F
:1B04F4008BF02230D10AE4F582F583F5F074802274FFF582F583F5F0747F221B
:04050F0075820022CF
:12051300AA82AB83A2F73392D1F5826002D2F7ACF022ED
:200525006040F82582500274FFF582E824F8501ECCCBCAF9E4CC24F85014CBCAF9E4CB24DE
:20054500F8500BCAF9E4CA24F8500379002224086010F8C3EC13FCEB13FBEA13FAE913F991
:03056500D8F122A8
:00000001FF
