:0400000002001132B7
:03000B000200B040
:1B006A007510327511007512327513007514007515017516D075178A02000E68
:03000E000201EA02
:20008500AE82AF837C007D00C3EC9EED9F501B7AFB7B04EA24FFF8EB34FFF988028903E8AE
:2000A5004970F00CBC00E10D80DE22C0E0C0F0C0D075D008AE178E8C740F5516FE7F008E57
:2000C5008AE5147014E515C313F51570037515085380F0E51542808016E515FF25E0F51518
:2000E5007410B515037515015380F0E5154280151074FFB510021511C3E495107480851145
:20010500F063F08095F04002C28CD0D0D0F0D0E032858230858331ACA05304F07D00BCF094
:2001250005BD000280557C017D007A007B0078007900C3E89404E964809480503EE5A0C446
:20014500540FFF6307FF53070F7E00EFB5041BEEB50517EA2AFEEB33FFEE2EFEEF33FFE517
:20016500302EF582E5313FF58322EC2CFCED33FD08B80001098802890380B790FFFF228539
:20018500823385833485F0357B007C00C3EB9404EC64809480504DEB2BF9EC33FAE9253398
:2001A500F8EA3534FEAF3588828E838FF0120635F8E92530F9EA3531FAAF3289828A838F25
:2001C500F012063528F5907E007F00C3EE94E8EF6480948350070EBE00F10F80EE0BBB00C5
:2001E500AB0C80A82275A882758901AE178E8C740F5516FE7F008E8A7518708F19751AB015
:200205008F1B751CD08F1D751EE08F1FE4F520F521F522F523F524F525F526F527F528F547
:200225002975A0FE752A01F52B752CFF752DFF752EFF752FFF74FF652AFA8AA0E52A252AB3
:20024500F52AE52B33F52B852882852983120116AA82AB83BAFF05BBFF02803EEAB52C062B
:20026500EBB52D028034BA0A05BB0002802CBA0B05BB000280248A2C8B2D8A2E8B2FAE22E9
:20028500AF238E208F21AE24AF258E228F23AE26AF278E248F258A268B27BA0A05BB000229
:2002A500800BBA0B05BB0002800302038DEAB52E07EBB52F0302038D8A2E8B2F852230850C
:2002C5002331900064C003C0021204C5AE82AF83D002D00385243085253190000AC007C095
:2002E50006C003C0021204C5AC82AD83D002D003D006D007EC2EFEED3FFFE5262EF582E50B
:20030500273FF583C003C0021204E2AC82AD83AEF0FFE4C0E0C0E074B4C0E07443C0E08CB3
:20032500828D838EF0EF120572AC82AD83AEF0FFE58124FCF581C004C005C006C007900093
:200345000075F04874431203C1AC82AD83AEF0FFE58124FCF5818C828D838EF0EF1204EFD7
:20036500858210858311D002D003E4F520F521F522F523F524F525F526F527F514BA0B0627
:20038500BB0003751401D28C0528E4B5280205297410B52A06E4B52B028002800A752A01B9
:1C03A500E4F52BF528F52975302075310075324090001875F04012018402023A89
:08073200030006000C000900A1
:2003C100120464BC0003020544EF60FA30D502B2D1E583B4FF0302055AE582B4FF03020522
:2003E1005A258340072482400B020544248314500302055AF582EA8DF0A4A8F0EA8EF0A4E2
:2004010028F8E435F0F9EB8DF0A428E935F0F9E433CA8FF0A429F9EA35F0FAEBF88EF0A44A
:2004210029F9EA35F0FAE433FBEC8DF0A429F9EA35F0FAE43BFBE88FF0A42AFAEB35F0FBF2
:20044100E433CCFD8EF0A42AFAEB35F0FBE43CFCED8FF0A42BFBEC35F0FC20E70312049259
:030461000205236E
:20046400AA82AB83A2F73392D1F5826002D2F7ACF0E58124F9F8E6FD08E6FE0886F008E6FB
:0E048400A2F73392D5F5836002D2F7AFF022D3
:06004000E478FFF6D8FD94
:200492007804EC7011E58224F8500AF582E4C9CACBFCD8EF22EC7820058220E713D5820169
:1304B20022C3E933F9EA33FAEB33FBEC33FCD8EA15822277
:20001E007900E94400601B7A0090073A780175A000E493F2A308B8000205A0D9F4DAF27547
:02003E00A0FF21
:1D04C500E5828530F0A4C582C0F08531F0A4D0F025F0C5838530F0A42583F5832281
:200046007800E84400600A790175A000E4F309D8FC7800E84400600C7900900001E4F0A3B8
:04006600D8FCD9FAEF
:0D04E200AC83AB827A007900748E02065A5A
:2004EF0012067E700AE582458345F0700122E430D112F4700BE5F0F47006E58330E701229F
:14050F0090800022700AE5F07006E58320E70122907FFF221F
:20052300B98003EA13B34010EA2401FAE43BFBE43CFC50047C800582BC000EBB000BBA001C
:2005430008E4F5F0F583F58222A2D1E582138CF092F78B838A8222E4F583F58275F080F4DC
:0F056300A2D11322E4F583F58275F0C0747F22D4
:2005720012046430D502B2D1BF0009BC000302056702055ABC0003020544E583B4FF0BE5FA
:2005920082B4FF03020567020544E582B4FF0302055AC395835007247F400B0205442480CB
:2005B20014500302055AF582C3ED9AEE9BEF9C40111582C3EA33F9EB33FAEC33FBE433FC86
:2005D2008005E4CCCBCAF9C08275F019C3E99DEA9EEB9FEC9400D5F002802D400EE99DF96A
:2005F200EA9EFAEB9FFBEC9400FCC3B3E833F8E58233F582E58333F583C3E933F9EA33FACA
:20061200EB33FBEC33FC80C4B3E4F938FAE43582FBE43583FCD082500405827C801204928F
:0306320002053B83
:0D0011007581351206D9E582600302000EEC
:1C06350020F71430F6148883A88220F507E6A88375830022E280F7E49322E022D4
:20065100FCABF0AA83A982749EF582C2D1EC30E716D2D1E9F42401F9EAF43400FAEBF434A8
:0D06710000FBECF43400FC1204920205239F
:20067E001206DDC3749E9582403979001206EF30D126E9F42401F582EAF43400F583EBF479
:20069E003400F5F0ECF43400700AE582458345F0700122E430E70F22EC20E71489828A8353
:1B06BE008BF02230D10AE4F582F583F5F074802274FFF582F583F5F0747F224F
:0406D9007582002204
:1206DD00AA82AB83A2F73392D1F5826002D2F7ACF02222
:2006EF006040F82582500274FFF582E824F8501ECCCBCAF9E4CC24F85014CBCAF9E4CB2413
:20070F00F8500BCAF9E4CA24F8500379002224086010F8C3EC13FCEB13FBEA13FAE913F9C5
:03072F00D8F122DC
:00000001FF
