:0400000002001132B7
:03000B000201A44B
:10006A00E4F510F511F512F513F514F51575167872
:10007A007517EC751820751903F51AF51B751C010F
:0A008A00F51D751E01C20002000EF4
:03000E0002009459
:1000940075A88275891185178C85168AC28C1202FF
:1000A40058AE82AF83BEFF06BFFF0302019EC3EEBC
:1000B400940AEF648094805017AC12AD138C108DA9
:1000C40011AC14AD158C128D138E148F1502019E74
:1000D400BE0A63BF0060D28CC20085102185112244
:1000E40090006412035CAC82AD83851221851322D7
:1000F40090000AC005C00412035CAA82AB83D0043A
:10010400D005EA2CFCEB3DFDE5142CF521E5153D6D
:10011400F52290000512035C752109752200120373
:1001240033858218858319E4F510F511F512F5135A
:10013400F514F5158064BE0B61BF005ED28CD2004D
:1001440085102185112290006412035CAE82AF8376
:1001540085122185132290000AC007C00612035C91
:10016400AC82AD83D006D007EC2EFEED3FFFE51444
:100174002EF521E5153FF52290000512035C75214B
:1001840009752200120333858218858319E4F5105A
:10019400F511F512F513F514F5151202020200A279
:1001A400C0E0C0F0C0D075D00885178C85168A30A1
:1001B4000014E51EC313F51E7003751E085380F06A
:1001C400E51E42808016E51EFF25E0F51E7410B57D
:1001D4001E03751E015380F0E51E4280151874FF3E
:1001E400B518021519C3E4951874808519F063F0E5
:1001F4008095F04002C28CD0D0D0F0D0E0327E376F
:100204007F001EBEFF011FEE4F70F7AF1074702FFA
:10021400F5907E377F001EBEFF011FEE4F70F7AFD3
:100224001274B02FF5907E377F001EBEFF011FEEC3
:100234004F70F7AF1474D02FF590051AE4B51A0275
:10024400051BC37418951A7403951B5006751C017D
:10025400751D00227E007F007C007D008C038BF0E6
:1002640005F07401800225E0D5F0FBF4C454F0FBE2
:100274003395E043030F8BA0AAA053020F7B00BA6F
:100284000F06BB000302031A7401B51C0614B51D46
:1002940002800302031A7A007B00A8A0790075216A
:1002A40002892288828983C007C006C003C0021263
:1002B40003C6A882A983D002D003D006D007B80110
:1002C40037B90034A8A0790075210289228882896F
:1002D40083C007C006C003C0021203FCA882A9831E
:1002E400D002D003D006D00788A00ABA00010BC3FD
:1002F400EA9404EB940040A2E4F51CF51DF51AF50C
:100304001BEE2EF8EF33F9E828F8E933F9EA28F57B
:1003140082EB39F583220CBC00010D8C068D07C3DA
:10032400EC9404ED9400500302026090FFFF227AE3
:1003340010E4FBFCE58225E0F582E58333F583EBED
:1003440033FBEC33FCEB9521F5F0EC95224006FCF5
:08035400ABF0438201DADD2267
:06004000E478FFF6D8FD94
:10001E007900E94400601B7A00900438780175A0DD
:10002E0000E493F2A308B8000205A0D9F4DAF27541
:02003E00A0FF21
:10035C00E5828521F0A4C582C0F08522F0A4D0F0FE
:10036C0025F0C5838521F0A42583F58322E521455D
:10037C002260467A01E52125E0F521E52233401281
:10038C00F522E5829521E583952240030A80E6C398
:10039C00E52213F522E52113F521C3E5829521F51C
:1003AC00F0E58395224005F58385F082C3E52213A1
:0A03BC00F522E52113F521DAE12214
:100046007800E84400600A790175A000E4F309D855
:10005600FC7800E84400600C7900900001E4F0A30D
:04006600D8FCD9FAEF
:0D001100758122120434E582600302000EA6
:1003C600C2D5E58330E70DD2D5E4C39582F582E444
:1003D6009583F583E52230E70BE4C39521F521E407
:1003E6009522F52212037930D50BE4C39582F58266
:1003F600E49583F58322C2D5E58330E70DD2D5E4B3
:10040600C39582F582E49583F583E52230E70DB244
:10041600D5E4C39521F521E49522F5221203333064
:10042600D50BE4C39582F582E49583F58322758224
:020436000022A2
:00000001FF
