:03000000020006F5
:03005F0002000399
:030003000200896F
:1000620085820C85830D900064120164AE82AF8399
:100072007C007D008E028F03C3EC9AED9B50070C2F
:10008200BC00F10D80EE22750875750900750AB085
:10009200750B007F007E017D01EFB40100E433FFA8
:1000A200FCEC2C2408F98790900032C007C006C0EF
:1000B20005120062D005D006D007208046ED6043CD
:1000C2007470B50806E4B509028002800B74B0B5FD
:1000D2000A06E4B50B0280C17D00E50A24FFFBE5B8
:1000E2000B34FFFC8B0A8C0BBBAF1DBC001A750ACC
:1000F200B9750B00AB08AC091BBBFF011C8B088C4C
:100102000980053080027D0120814CEE60497479BE
:10011200B50806E4B509028002800C74B9B50A0775
:10012200E4B50B0302009B7E007401250AFBE43553
:100132000BFC8B0A8C0BBBBA05BC000280030200CD
:100142009B750AB0750B00AB08AC090BBB00010C28
:100152008B088C0902009B20810302009B7E010216
:02016200009B00
:06003500E478FFF6D8FD9F
:100013007900E94400601B7A00900185780175A09E
:1000230000E493F2A308B8000205A0D9F4DAF2754C
:02003300A0FF2C
:10016400E582850CF0A4C582C0F0850DF0A4D0F022
:0D01740025F0C583850CF0A42583F58322BA
:10003B007800E84400600A790175A000E4F309D860
:10004B00FC7800E84400600C7900900001E4F0A318
:04005B00D8FCD9FAFA
:0D00060075810D120181E582600302000387
:040181007582002261
:00000001FF
