:03000000020006F5
:03005F0002000399
:030003000200D226
:20006200858208858309AC805304F07D00BCF005BD00028057C2917C017D007A007B00786D
:20008200007900C3E89404E964809480503EE580C4540FFF6307FF53070F7E00EFB5041B95
:2000A200EEB50517EA2AFEEB33FFEE2EFEEF33FFE5082EF582E5093FF58322EC2CFCED3388
:2000C200FD08B80001098802890380B790FFFF227E007F007C017D00D291EC2CFCED33FDCF
:2000E20074FF6CFA8D038A808E828F83C007C006C005C004120062AA82AB83D004D005D00C
:2001020006D007BAFF05BBFF02D2910EBE00010FBC10C7BD00C47C017D007E007F0080BA02
:06003500E478FFF6D8FD9F
:200013007900E94400601B7A00900126780175A000E493F2A308B8000205A0D9F4DAF2756C
:02003300A0FF2C
:20003B007800E84400600A790175A000E4F309D8FC7800E84400600C7900900001E4F0A3C3
:04005B00D8FCD9FAFA
:0D000600758109120122E5826003020003EA
:0401220075820022C0
:00000001FF
