:0400000002002132A7
:03000B000201D11E
:0100130032BA
:03001B00020221BD
:10007A00E4F518F519F51AF51BF51CF51D751E069C
:10008A00751F0175202675210175224A7523017590
:10009A00245D7525017526887527017528B8752987
:0A00AA0001752AEE752B0102001EFD
:03001E000205C414
:1000B400AD82AE83AFF0C3E5189414E5196480945F
:1000C4008050012274062DFAE43EFB8F048A828B51
:1000D400838CF0120AC3F8A3120AC3F908B800010A
:1000E400098A828B838CF0E8120955A3E912095519
:1000F400E4F518F5198A828B838CF0120AC3F8A3ED
:10010400120AC3F9B80A05B900028001228A828B57
:10011400838CF0E4120955A312095574042DFAE4F2
:100124003EFB8F048A828B838CF0120AC3F8A312DD
:100134000AC3F908B80001098A828B838CF0E8129B
:100144000955A3E9120955B80605B9000280012230
:1001540074022DF55EE43EF55F8F60855E82855FF7
:10016400838560F0120AC3F8A3120AC3F908B80021
:100174000109855E82855F838560F0E8120955A3D5
:10018400E91209558A828B838CF0E4120955A31273
:100194000955B80A37B90034855E82855F83856066
:1001A400F0E4120955A31209558D828E838FF01243
:1001B4000AC3FBA3120AC3FC0BBB00010C8D828E85
:1001C400838FF0EB120955A3EC02095522C0E0C05D
:1001D400D075D008758C3C758AB00518E4B5180242
:1001E4000519AE1CAF1D051CE4B51C02051DC3EEAC
:1001F4009414EF64809480401F051AE4B51A020534
:100204001BC3E51A942AE51B648094804005E4F539
:100214001AF51BE4F51CF51DD0D0D0E032C0E0C0C7
:1002240082C083C0D075D010E51A251AFEE51B33B1
:10023400FFEE24E0F582EF340BF583E493FF1FEF28
:100244002F241EF987160987178E12EFFB3395E0CA
:10025400FCFDE4C39AE49BFB74019CE49D8B8DC379
:10026400E49EFE8E8BB295D0D0D083D082D0E03283
:1002740085825E85835FAC805304F07D00BCF0050D
:10028400BD000280567C017D007A007B00780079F5
:1002940000C3E89404E964809480503FE580C4542A
:1002A4000FFF6307FF53070F7E00EFB5041CEEB585
:1002B4000518E55E255EFEE55F33FFEE2EFEEF33A7
:1002C400FFEA2EF582EB3FF58322EC2CFCED33FDA7
:1002D40008B80001098802890380B690FFFF22ADA7
:1002E40082AE83AFF0E56170030203CDC3747895E9
:1002F40062741E9563E4956474808565F063F08090
:1003040095F040012275660175670079007A00C393
:10031400E99404EA648094804001228900EAC403D9
:1003240054F8C8C403C868C854F8C868FCE824C0B2
:10033400F8EC340BFC740628F582E43CF583E49372
:1003440024FF929088828C83A3A3A3A3E49324FF25
:10035400929188828C83A3A3E49324FF929288824F
:100364008C83E49324FF9293E929FBEA33FCEB2585
:100374005EFBEC355FF8AC608B8288838CF0120AEC
:10038400C3FBA3120AC3F8EB2BFBE833F8EB2DFBFA
:10039400E83EF88F048B8288838CF0120AC3F5A0A0
:1003A4007B007C00C3EB94F4EC6480948150070BD5
:1003B400BB00F10C80EE09B900010AE5662566F57B
:1003C40066E56733F567020313756801756900799B
:1003D400007A00C3E99404EA64809480400122898D
:1003E40000EAC40354F8C8C403C868C854F8C86809
:1003F400FCE824C0F8EC340BFC740628F582E43CD9
:10040400F583E49324FF929088828C83A3A3A3A30F
:10041400E49324FF929188828C83A3A3E49324FF22
:10042400929288828C83E49324FF9293E929FBEAD5
:1004340033FCEB255EFBEC355FF8AC608B82888384
:100444008CF0120AC3FBA3120AC3F8EB2BFBE833AC
:10045400F8EB2DFBE83EF88F048B8288838CF01236
:100464000AC3F5A07B007C00C3EB94E8EC648094A1
:100474008350070BBB00F10C80EE09B900010AE5BB
:10048400682568F568E56933F5690203D7858261F3
:1004940085836285F0637B007C00C3EB9404EC6489
:1004A4008094805047EB2BF9EC33FAE92561F8EAA4
:1004B4003562FEAF6388828E838FF0120AC3F8A37D
:1004C400120AC3FEE9255EF9EA355FFAAF60898254
:1004D4008A838FF0120AC3F9A3120AC3FAE8B5019A
:1004E4000DEEB502090BBB00B10C80AED28E22E436
:1004F400F51AF51B7E077F00C3EE9410EF64809419
:1005040080502CEE2EFCEF33EC241EF98E05ED24E6
:10051400F925E0241EF8860408860518EC2CFCED69
:1005240033FDA70409A705190EBE00CC0F80C97EB0
:10053400007F00C3EE9410EF64809480400122EEAB
:100544002EFCEF33EC241EF9878209878319C00738
:10055400C006C001120970AA82AB83ACF0FDC002D0
:10056400C003C004C00590000075F080743F120AF7
:1005740000AA82AB83ACF0FDE58124FCF581C002C6
:10058400C003C004C00590240075F07474491208B7
:1005940051AA82AB83ACF0FDE58124FCF5818A820B
:1005A4008B838CF0ED12097DE5828583F0D001D038
:1005B40006D007F709A7F0190EBE00010F02053790
:1005C4001204F3C295D2AF75891175A88AD28CC270
:1005D4008E752CFF752DFFE4F52EF52F753001F582
:1005E40031F532F533F534F535F536F537F538F5BB
:1005F40039753AFF753BFFF53CF53DF53EF53FF5A2
:1006040040F541754203F54375449FF5457546250C
:10061400F54775480DF549754A99F54B754C49F5FB
:100624004D754E41F54F75501FF551755201F553F7
:10063400755409F5557556FFF55775800FF558F53E
:1006440059F55AF55BF55CF55D7D007C00055AE4CF
:10065400B55A0C055BB55B07055CB55C02055DC36B
:10066400E55A9440E55B941FE55C9400E55D648085
:1006740094804009E4F55AF55BF55CF55D74FF651B
:1006840030FA8A80E5302530F530E53133F53185AF
:100694002E82852F83C005C004120274AA82AB8304
:1006A400D004D005EAB52C07EBB52D03020776BAC2
:1006B400FF06BBFF030207768A2C8B2DBA0A05BB03
:1006C40000027D01BA0B05BB00027D00BA0C05BB1C
:1006D40000027C01BA0D05BB00027C00BA0E05BB0A
:1006E4000002C28EBA0F05BB0002D28EED6040EB51
:1006F40020E72AC374099A74808BF063F08095F024
:10070400401BAE58AF590558E4B558020559EE2EB2
:10071400FEEF33FFEE2432F8A60208A6037404B5F4
:100724005806E4B5590280028005E4F558F559EC01
:100734006040EB20E72AC374099A74808BF063F05D
:100744008095F0401BAE58AF590558E4B5580205E2
:1007540059EE2EFEEF33FFEE243AF8A60208A60364
:100764007404B55806E4B5590280028005E4F558CE
:10077400F559ED7014EC701190003275F040C0051D
:10078400C0041200B4D004D005052EE4B52E020531
:100794002F7410B53006E4B531028002800A75303A
:1007A40001E4F531F52EF52FEC7003ED6059ED60A1
:1007B4002B755E32755F00756040756101855A6204
:1007C400855B63855C64855D6590004275F040C01F
:1007D40005C0041202E3D004D0058054755E3A7556
:1007E4005F00756040756101855A62855B63855C55
:1007F40064855D6590004275F040C005C004120236
:10080400E3D004D0058029755E32755F00756040C1
:10081400756100855A62855B63855C64855D65905E
:10082400004275F040C005C0041202E3D004D005B4
:10083400755E3A755F0075604090003275F040C097
:0D08440005C004120491D004D00502065135
:100BC000010001000100000001000100000001001F
:100BD000010000000100010000000100010001000F
:100BE00001000100050005000600060005000400E4
:100BF00004000300030002000200010005000500DC
:100C000004000400030003000200050005000400C6
:100C100004000300030002000100010005000500BC
:100C200006000600050004000400030003000200A3
:040C300002000100BD
:100851001208F4BC00030209D2EF60FA30D502B2EB
:10086100D1E583B4FF030209E8E582B4FF0302097D
:10087100E8258340072482400B0209D224831450C7
:10088100030209E8F582EA8DF0A4A8F0EA8EF0A44B
:1008910028F8E435F0F9EB8DF0A428E935F0F9E416
:1008A10033CA8FF0A429F9EA35F0FAEBF88EF0A4F7
:1008B10029F9EA35F0FAE433FBEC8DF0A429F9EAE1
:1008C10035F0FAE43BFBE88FF0A42AFAEB35F0FBB4
:1008D100E433CCFD8EF0A42AFAEB35F0FBE43CFCCA
:1008E100ED8FF0A42BFBEC35F0FC20E7031209227D
:1008F1000209B1AA82AB83A2F73392D1F5826002D9
:10090100D2F7ACF0E58124F9F8E6FD08E6FE0886A9
:10091100F008E6A2F73392D5F5836002D2F7AFF083
:0109210022B3
:06005000E478FFF6D8FD84
:100922007804EC7011E58224F8500AF582E4C9CA11
:10093200CBFCD8EF22EC7820058220E713D5820188
:1009420022C3E933F9EA33FAEB33FBEC33FCD8EA9E
:03095200158222E9
:10002E007900E94400601B7A00900C34780175A0C9
:10003E0000E493F2A308B8000205A0D9F4DAF27531
:02004E00A0FF11
:1009550020F71130F6138883A88220F509F6A883BD
:0B0965007583002280FEF280F5F02276
:100056007800E84400600A790175A000E4F309D845
:10006600FC7800E84400600C7900900001E4F0A3FD
:04007600D8FCD9FADF
:10097000AC83AB827A007900748E020AE8120B0C09
:10098000700AE582458345F0700122E430D112F40B
:10099000700BE5F0F47006E58330E70122908000EB
:1009A00022700AE5F07006E58320E70122907FFFC0
:1009B00022B98003EA13B34010EA2401FAE43BFBB6
:1009C000E43CFC50047C800582BC000EBB000BBAEA
:1009D0000008E4F5F0F583F58222A2D1E582138CBC
:1009E000F092F78B838A8222E4F583F58275F0809A
:1009F000F4A2D11322E4F583F58275F0C0747F224E
:100A00001208F430D502B2D1BF0009BC00030209BC
:100A1000F50209E8BC00030209D2E583B4FF0BE547
:100A200082B4FF030209F50209D2E582B4FF030292
:100A300009E8C395835007247F400B0209D2248024
:100A40001450030209E8F582C3ED9AEE9BEF9C4037
:100A5000111582C3EA33F9EB33FAEC33FBE433FCD0
:100A60008005E4CCCBCAF9C08275F019C3E99DEAD0
:100A70009EEB9FEC9400D5F002802D400EE99DF98D
:100A8000EA9EFAEB9FFBEC9400FCC3B3E833F8E575
:100A90008233F582E58333F583C3E933F9EA33FA28
:100AA000EB33FBEC33FC80C4B3E4F938FAE4358271
:100AB000FBE43583FCD082500405827C801209223D
:030AC0000209C95F
:0D002100758169120B67E582600302001E05
:100AC30020F71430F6148883A88220F507E6A8835C
:100AD30075830022E280F7E49322E022FCABF0AAC4
:100AE30083A982749EF582C2D1EC30E716D2D1E994
:100AF300F42401F9EAF43400FAEBF43400FBECF4E7
:100B03003400FC1209220209B1120B6BC3749E95C7
:100B13008240397900120B7D30D126E9F42401F5A6
:100B230082EAF43400F583EBF43400F5F0ECF434AA
:100B330000700AE582458345F0700122E430E70F37
:100B430022EC20E71489828A838BF02230D10AE4D5
:100B5300F582F583F5F074802274FFF582F583F551
:100B6300F0747F2275820022AA82AB83A2F73392AC
:100B7300D1F5826002D2F7ACF0226040F8258250B2
:100B83000274FFF582E824F8501ECCCBCAF9E4CCFA
:100B930024F85014CBCAF9E4CB24F8500BCAF9E477
:100BA300CA24F8500379002224086010F8C3EC1318
:0D0BB300FCEB13FBEA13FAE913F9D8F12269
:00000001FF
