:03000000020006F5
:03005F0002000399
:03000300020216E0
:2000620085823A85833BAC805304F07D00BCF005BD000280567C017D007A007B00780079E4
:2000820000C3E89404E964809480503FE580C4540FFF6307FF53070F7E00EFB5041CEEB569
:2000A2000518E53A253AFEE53B33FFEE2EFEEF33FFEA2EF582EB3FF58322EC2CFCED33FD94
:2000C20008B80001098802890380B690FFFF2285824585834685F047E5407003020188C31C
:2000E20074789541741E9542E4954374808544F063F08095F04001227548017549007900BA
:200102007A00C3E99404EA64809480400122E929F8EA33FCE82545FBEC3546FEAF478B8202
:200122008E838FF01203A0F590E8253DF8EC353EFCAF3F88828C838FF01203A0F8A312036B
:20014200A0FCE828F8EC33FCE8253AF8EC353BFCAF3C88828C838FF01203A0F5A07E007F7D
:2001620000C3EE94F4EF6480948150070EBE00F10F80EE09B900010AE5482548F548E549F9
:2001820033F549020104754A01754B007C007D00C3EC9404ED648094805078EC2CFAED3346
:2001A200FBEA2545F8EB3546F9AF47888289838FF01203A0F590EA253DFAEB353EFBAF3F45
:2001C2008A828B838FF01203A0FAA31203A0FBEA2AFAEB33FBEA253AFAEB353BFBAF3C8A4D
:2001E200828B838FF01203A0F5A07E007F00C3EE94E8EF6480948350070EBE00F10F80EEFF
:200202000CBC00010DE54A254AF54AE54B33F54B020192227508FF7509FFE4F50AF50B757E
:200222000C01F50DF50EF50FF510F511F512F513F514F515751603F51775189FF519751A16
:2002420025F51B751C0DF51D751E99F51F752049F521752241F52375241FF525752601F530
:2002620027752809F529752AFFF52B752CFEF52D752EFDF52F7530FBF5317532F7F533754D
:20028200800FF534F535F536F537F538F5397B000536E4B5360C0537B537070538B53802DC
:2002A2000539C3E5369440E537941FE5389400E539648094804009E4F536F537F538F539D7
:2002C20074FF650CFA8A80E50C250CF50CE50D33F50D850A82850B83C003120062AE82AFB0
:2002E20083D003EEB50806EFB50902805FBEFF05BFFF0280578E088F09BE0A05BF00027BD7
:2003020001BE0B05BF00027B00EB6040EF20E72AC374099E74808FF063F08095F0401BAC75
:2003220034AD350534E4B534020535EC2CFCED33FDEC240EF8A60608A6077404B53406E470
:20034200B5350280028005E4F534F535050AE4B50A02050B7410B50C06E4B50D02800280B8
:200362000D750C01E4F50DF50AF50B7590FF753A16753B00753C40753D0E753E00753F4036
:1E0382008B4085364185374285384385394490002C75F040C0031200D1D00302029226
:06003500E478FFF6D8FD9F
:200013007900E94400601B7A009003C0780175A000E493F2A308B8000205A0D9F4DAF275D0
:02003300A0FF2C
:20003B007800E84400600A790175A000E4F309D8FC7800E84400600C7900900001E4F0A3C3
:04005B00D8FCD9FAFA
:0D00060075814B1203BCE58260030200030C
:1C03A00020F71430F6148883A88220F507E6A88375830022E280F7E49322E0226C
:0403BC007582002224
:00000001FF
