:03000000020006F5
:10005F00750870750900750AB0750B00750CD075B1
:10006F000D00750EE0750F0075100F7511007512EC
:10007F000F75130075140F75150075160F75170092
:08008F00E4F518F51902000365
:030003000200FFF9
:10009700AEA05306F07F00BEF005BF000280557E7C
:1000A700017F007C007D007A007B00C3EA9404EBAB
:1000B70064809480503EE5A0C4540FF86300FF535A
:1000C700000F7900E8B5061BE9B50717EC2CF8ED2A
:1000D70033F9E828F8E933F9E51828F582E51939FD
:1000E700F58322EE2EFEEF33FF0ABA00010B8A04D6
:1000F7008B0580B790FFFF2275A0FE751A01751B4F
:1001070000751CFF751DFF74FF651AFA8AA0E51AB2
:10011700251AF51AE51B33F51B120097AA82AB8344
:10012700BAFF05BBFF02802AEAB51C06EBB51D0224
:1001370080208A1C8B1DAC12AD138C108D11AC1452
:10014700AD158C128D13AC16AD178C148D158A1640
:100157008B170518E4B5180205197410B51A06E4CB
:10016700B51B028002800A751A01E4F51BF518F524
:10017700197C007D00C3EC9404ED64809480508763
:10018700EC2CFAED33EA2408F98707EA2410F9E79B
:0A0197002FF5900CBC00DE0D80DB9C
:06003500E478FFF6D8FD9F
:100013007900E94400601B7A009001A5780175A07E
:1000230000E493F2A308B8000205A0D9F4DAF2754C
:02003300A0FF2C
:10003B007800E84400600A790175A000E4F309D860
:10004B00FC7800E84400600C7900900001E4F0A318
:04005B00D8FCD9FAFA
:0D00060075811D1201A1E582600302000357
:0401A1007582002241
:00000001FF
