:03000000020006F5
:03005F0002000399
:030003000200F9FF
:200062007E207F03EE24FFFCEF34FFFD8C068D07EC4D70F02274FF650AFE8E80AE08150890
:2000820074FFB508021509E50E2EFE3395E05306077F00EE2EFEEF33FFEE24A5F582EF34DC
:2000A20001F583E493F5A0120062E50A250AF50AE50B33F50BE50A450B703B750A01F50B9B
:2000C200750807F509050CE4B50C02050D740AB50C06E4B50D02800122E4F50CF50D050E48
:2000E200B50E02050F7408B50E06E4B50F02800122E4F50EF50F22750807750900750A0104
:0F010200E4F50BF50EF50F7590FF12007780FBFB
:200115000100010001000100010001000100010001000100010000000000010001000100BC
:200135000100010000000100010000000100010001000100000000000000000001000100A0
:2001550001000000010001000100010000000100010000000100010001000100000001007E
:2001750001000100010001000100010001000100010001000100010001000100010001005A
:200195007F003F001F000F000700030001000000E700DB00BD008100BD00BD00BD00FF001D
:06003500E478FFF6D8FD9F
:200013007900E94400601B7A009001B5780175A000E493F2A308B8000205A0D9F4DAF275DD
:02003300A0FF2C
:20003B007800E84400600A790175A000E4F309D8FC7800E84400600C7900900001E4F0A3C3
:04005B00D8FCD9FAFA
:0D00060075810F120111E5826003020003F5
:0401110075820022D1
:00000001FF
